:100000000C94BC000C94E4000C94E4000C94E40008
:100010000C94E4000C94E4000C94E4000C94E400D0
:100020000C94E4000C94E4000C94A9070C941808B8
:100030000C94E4000C94E4000C94E4000C94E400B0
:100040000C94E4000C94E4000C94E4000C94E400A0
:100050000C94E4000C94E4000C94E4000C944A0A20
:100060000C94E4000C94E4000C94E4000C94E40080
:100070000C94E4000C94E4000C94E4000C94E40070
:100080000C94E4000C94E4000C94E4000C94E40060
:100090000C94E4000C94E4000C94E4000C94E40050
:1000A0000C94E4000C94E4000C94E40005010905B0
:1000B000A1011500250135004501750195100509BF
:1000C00019012910810205012507463B0175049598
:1000D0000165140939814265009501810126FF00FF
:1000E00046FF000930093109320935750895048148
:1000F000020600FF0920950181020A212695089138
:1001000002C0080B00020202000009040000010204
:10011000020000052400100105240101010424024D
:1001200006052406000107058103100040090401AB
:1001300000020A00000007050202400000070583D4
:10014000024000000403090412010002EF02014012
:100150000D0F9200000101020301556E6B6E6F7767
:100160006E0041726475696E6F204C656F6E6172CE
:10017000646F0000A20B0D0D11241FBECFEFDAE05B
:10018000DEBFCDBF11E0A0E0B1E0E6E7FDE102C0D7
:1001900005900D92A83EB107D9F722E0A8EEB1E094
:1001A00001C01D92A43FB207E1F710E0CBEBD0E015
:1001B00004C02197FE010E94A80ECA3BD107C9F7CF
:1001C0000E94D90B0C94AE0E0C9400001F93CF9399
:1001D000DF93182FC0913E02D0913F028A3041F444
:1001E000E881F9810190F081E02D6DE0CE01099563
:1001F000E881F9810190F081E02D612FCE01099510
:1002000021E030E0019711F430E020E0C901DF91F6
:10021000CF911F910895CF93DF93C0913E02D0916B
:100220003F02E881F9810084F185E02DCE01099536
:10023000892BB9F3E881F9810284F385E02DCE01A1
:10024000DF91CF910994CF93DF93FC01818190914D
:100250003102482F490F5527551F483051059CF54D
:10026000A281B381109709F52DE232E03383228316
:10027000208120932F028093300280913202820FDE
:10028000808320913302A22FB09134028A2F821BE7
:100290008917E8F481813D91C82FD0E0C45FDE4F1B
:1002A00038838F5F8183F2CFD90118962D913C91CD
:1002B000199721153105C1F72DE232E019963C93CB
:1002C0002E931897D5CF80E0DF91CF91089581E0EC
:1002D000FBCFFC0180912C02882311F13FB7F894E9
:1002E00082E08093E9002091F200822F90E01816BE
:1002F000190614F481E090E0882339F0289844E648
:1003000040932B024091F1004083222339F0209149
:10031000F200211103C02BE62093E8003FBF0895AF
:100320008FEF9FEF08954091250250912602209172
:1003300023023091240242175307B4F49091E8004D
:100340009570E1F39091E80092FD19C08093F1005F
:10035000809125029091260201968F739927892B0F
:1003600019F48EEF8093E800809125029091260287
:100370000196909326028093250281E0089580E003
:100380000895DF92EF92FF920F931F93CF93DF9325
:10039000D82E8A01EB017B01E40EF51ECE15DF0598
:1003A00059F0D7FE12C0FE0184910E94930121965C
:1003B0008111F4CF0FEF1FEFC801DF91CF911F9193
:1003C0000F91FF90EF90DF9008958881EECF2FB7C7
:1003D000F89487708093E9009091E800892F8072EB
:1003E00095FF04C09091F20080E4891B2FBF08950F
:1003F000615030F02091F100FC0120830196F8CF8C
:10040000289884E680932B020895DC01ED91FC91FD
:100410000190F081E02D099480911B0281110DC0A3
:1004200082E08093170284E08093180210921A02EF
:100430001092190281E080931B0287E192E00895F7
:100440000F931F93CF93DF931F92CDB7DEB782E058
:10045000898342E450E062E071E080E80E94C101DB
:100460000E940C02DC0112960D911C9101151105E0
:1004700089F0D801ED91FC910280F381E02DBE015D
:100480006F5F7F4FC801099597FD04C0F801008593
:100490001185ECCF89810F90DF91CF911F910F9142
:1004A0000895CF93DF931F92CDB7DEB76983DC0148
:1004B000ED91FC910280F381E02D41E050E0BE011E
:1004C0006F5F7F4F09950F90DF91CF91089583E083
:1004D0008093E9008091F200882319F08AE38093E9
:1004E000E800089583E00E94E70190E00895CF932B
:1004F000DF931F92CDB7DEB7FC018485958597FD0C
:1005000008C02FEF3FEF358724870F90DF91CF9101
:100510000895CE0101960E946901019719F489811D
:1005200090E0F3CF8FEF9FEFF0CF0F931F93CF9318
:10053000DF931F92CDB7DEB78C01FC0184859585D2
:1005400097FF0BC0CE0101960E946901019771F4DB
:10055000898190E0F80195878487F80184859585E5
:100560000F90DF91CF911F910F9108958FEF9FEF23
:10057000F1CFFC018485958597FD0BC09FB7F8945A
:1005800082E08093E9008091F2009FBF90E00196A5
:1005900008959FB7F89482E08093E9008091F2007B
:1005A0009FBF90E008953FB7F89480911302909117
:1005B0001402A0911502B091160226B5A89B05C0A1
:1005C0002F3F19F00196A11DB11D3FBFBA2FA92FD2
:1005D000982F8827BC01CD01620F711D811D911DCF
:1005E00042E0660F771F881F991F4A95D1F708953B
:1005F0008F929F92AF92BF92CF92DF92EF92FF9233
:100600006B017C010E94D3024B015C01C114D10437
:10061000E104F104B9F00E94D302681979098A094A
:100620009B09683E73408105910580F321E0C21A61
:10063000D108E108F10888EE880E83E0981EA11C1D
:10064000B11CE4CFFF90EF90DF90CF90BF90AF90C0
:100650009F908F9008957F928F929F92AF92BF92BA
:10066000CF92DF92EF92FF920F931F93CF93DF937E
:10067000C82E8B017A0180912C02811110C08FEF5E
:100680009FEFDF91CF911F910F91FF90EF90DF903F
:10069000CF90BF90AF909F908F907F900895809162
:1006A000290280FF05C08091E00082608093E00015
:1006B000CE2DDF2DD12C8AEFB82E8C2D8770982E61
:1006C0008C2D8072882E8C2D8074782E9AE3A92E22
:1006D000209719F4DD2009F452C08C2D0E94E70107
:1006E00081110AC0BA94BB2051F261E070E080E051
:1006F00090E00E94F802ECCF8C171D0611F00CF070
:100700008C2F9FB7F8949092E9002091E80025FD86
:1007100002C09FBFDDCF282F30E0C21BD30B882043
:1007200029F08150A0F01092F100FBCFF801C7FC36
:100730000AC0815050F041914093F100FACF4491AA
:100740004093F10031968150D0F7020F131FDD2046
:1007500021F0A092E800D12CDCCF8091E80085FD4B
:1007600007C0A092E800DD24D394209791F2F3CF44
:10077000209779F6772069F2A092E800CACF5D98B9
:1007800084E680932802C7017CCFCF93DF93EC01EE
:1007900080910B01882331F083E00E942B0318160F
:1007A000190634F081E090E09B838A8380E090E03A
:1007B000DF91CF910895DC01FB0112962C911297E5
:1007C000848195812817190641F491818081813AAD
:1007D00031F49D7F81E0913009F080E0089581320D
:1007E000E1F79B3029F482811F968C9381E0089574
:1007F0009A3099F7828150968C93F8CFDC01FB01F7
:1008000088E4808389E4818384E482831D969C91BB
:100810001D979F709F5B93831D968D919C9124E003
:10082000969587952A95E1F78F708F5B848385E095
:100830000895EF92FF920F931F93CF93DF93FB01E5
:100840002081213871F52381223259F5DC0112967D
:100850004C91248135814217130619F5EC010B8563
:100860001C85F12CE12C0115110589F0F80144815A
:1008700055816281738180E80E94C1018F3F980792
:1008800049F0E80EF91ED8010D911C91ECCF81E0E2
:100890008F87C701DF91CF911F910F91FF90EF904C
:1008A000089590E080E0F6CFCF93DF93CDB7DEB729
:1008B00069970FB6F894DEBF0FBECDBFFC01DB0118
:1008C0008C918F5F8C939E012D5F3F4F8DE0D901FE
:1008D0001D928A95E9F729E0298384E08A8391E0D3
:1008E0009D8383E08E832A8721E22B879C879D87C7
:1008F0009F8722E2288B27E02B8B25E02C8B8E8B89
:1009000020E430E0388F2F8B998F82818B839585FF
:100910008685998B8A8B838180688D8B49E150E035
:10092000BE016F5F7F4F80E00E94C10169960FB6E4
:10093000F894DEBF0FBECDBFDF91CF910895CB01FC
:1009400008954F925F926F927F92BF92CF92DF9203
:10095000EF92FF920F931F93CF93DF93EC01290146
:100960003A018B01C12CD12C7601C414D504E604C4
:10097000F7040CF03FC0F801B1908F018F8580FF24
:100980000BC0E881F9810084F185E02D20E144E08D
:1009900070E060E0CE010995EB85FC858D859E8534
:1009A000E817F90760F4B0828B859C8501969C87D7
:1009B0008B872FEFC21AD20AE20AF20AD6CF6B2D2A
:1009C00070E0E881F981028CF38DE02DCE0109956C
:1009D000019679F7C701B601DF91CF911F910F9171
:1009E000FF90EF90DF90CF90BF907F906F905F90DF
:1009F0004F90089573016201EDCFCF93DF93EC0127
:100A0000E881F9810288F389E02D09958F3F9807E5
:100A100031F02D813E812F5F3F4F3E832D83DF914B
:100A2000CF9108958FEF9FEF089560E070E0CB01C4
:100A3000089590E080E00895FF920F931F93CF9365
:100A4000DF938C01EB016F3F7607B9F0F62EEAE0F9
:100A50006E1306C06DE0F801808991890E9405023D
:100A60006F2DF801808991890E940502CE01DF91E6
:100A7000CF911F910F91FF900895D0E0C0E0F6CF85
:100A80007F928F929F92AF92BF92CF92DF92EF921E
:100A9000FF920F931F93CF93DF938C0149015A016B
:100AA000EB01C12CD12C7601C814D904EA04FB0453
:100AB000B4F479908AE0781206C06DE0F80180897C
:100AC00091890E940502672DF801808991890E9411
:100AD0000502FFEFCF1ADF0AEF0AFF0AE5CFC501D3
:100AE000B401DF91CF911F910F91FF90EF90DF90B4
:100AF000CF90BF90AF909F908F907F900895CF93AD
:100B0000DF93EC0188899989DC01ED91FC910084E7
:100B1000F185E02D0995892BA9F388899989DC0154
:100B2000ED91FC910284F385E02DDF91CF91099442
:100B3000CF93DF93EC0188899989DC01ED91FC91D9
:100B40000084F185E02D0995892BA9F3888999897D
:100B5000DC01ED91FC910484F585E02DDF91CF91CE
:100B600009948F929F92AF92BF92CF92DF92EF92B1
:100B7000FF920F931F93CF93DF938C0149015A018A
:100B8000EB01C12CD12C7601D80150968D919C910E
:100B9000DC01ED91FC910284F385E02D09958F3FF6
:100BA00061F0C814D904EA04FB043CF48993BFEF54
:100BB000CB1ADB0AEB0AFB0AE7CFC701B601DF91CC
:100BC000CF911F910F91FF90EF90DF90CF90BF904A
:100BD000AF909F908F900895DC0150968D919C91DD
:100BE000DC01ED91FC910084F185E02D099490E009
:100BF00080E0089590E080E0089590E080E008951E
:100C000008950895DC01ED91FC9136970190F081F3
:100C1000E02DE80FF91F8FE891E09183808389E947
:100C200091E09783868308952FE831E0FC013183BA
:100C3000208329E931E0378326830895FB01208151
:100C40003181FC0131832083FB0142815381265095
:100C50003109F90120813181820F931FFC015183F9
:100C6000408308952BEA31E0FC013183208325EB9A
:100C700031E0318F208F6FE971E00C941E06DC01AA
:100C8000ED91FC91369720813181820F931F0C9456
:100C900032060895DC01ED91FC9136970190F081C8
:100CA000E02DE80FF91F8BE791E09183808385E8C1
:100CB00091E09383828308952BE731E0FC01318337
:100CC000208325E831E0338322830895FB012081CE
:100CD0003181FC0131832083FB0142815381265005
:100CE0003109F90120813181820F931FFC01518369
:100CF0004083089527EC31E0FC013183208321ED0E
:100D000031E0358B248B6BEB71E00C946606DC01D3
:100D1000ED91FC91369720813181820F931F0C94C5
:100D20007A0608950F931F93CF938C018091E80169
:100D3000811130C0C1E0C0933102C093320287E319
:100D400092E0909334028093330210923602109214
:100D5000350285E491E090932E0280932D0210924B
:100D600039021092380210923B0210923A02C0935C
:100D70003C02C0933D0281EC809337020E940C023A
:100D80000E94230185E491E090932E0280932D022E
:100D9000C093E8018091300248E050E0B8018064DF
:100DA000CF911F910F910C942B030C94180EDC0122
:100DB000ED91FC91369720813181820F931F0C9425
:100DC000D506CF93DF93EC010E947A06CE01DF9126
:100DD000CF910C94180EDC01ED91FC913697208197
:100DE0003181820F931F0C94E106CF93DF93EC01C6
:100DF0000E943206CE01DF91CF910C94180EDC01D7
:100E0000ED91FC91369720813181820F931F0C94D4
:100E1000F5060C94180E0C94180E0C94180EDC01A8
:100E2000ED91FC91369720813181820F931F0C94B4
:100E30000D070C94180ECF938091060281117BC090
:100E40008091F601811113C01092F1011092F0010E
:100E50008CEA90E09093F3018093F20186E590E0B4
:100E60009093F5018093F40181E08093F6018091E5
:100E7000E801811130C0C1E0C0933102C093320259
:100E800087E392E09093340280933302109236020B
:100E90001092350285E491E090932E0280932D020A
:100EA000109239021092380210923B0210923A02CC
:100EB000C0933C02C0933D0281EC809337020E94B4
:100EC0000C020E94230185E491E090932E0280930E
:100ED0002D02C093E801E0913802F0913902309779
:100EE00079F580EF91E090933902809338028091F8
:100EF0003A0290913B022091F4013091F501820F6A
:100F0000931F90933B0280933A0298E0EEEFF1E05A
:100F1000DF01892F1D928A95E9F780E8809301020D
:100F20008093020280930302809304029093000254
:100F300081E0809306028EEF91E0CF910895FC014D
:100F4000808191810097D9F780EF91E09183808330
:100F5000CECF1F920F920FB60F9211248F939F93B3
:100F60008091E1009091E100937F9093E10083FFF5
:100F70000FC01092E90091E09093EB001092EC000A
:100F800092E39093ED0010922C0298E09093F00081
:100F900082FF22C093E09093E9009091F2009923A0
:100FA00019F09AE39093E80090912802992341F078
:100FB00090912802915090932802911101C05D9A5E
:100FC00090912B02992341F090912B029150909394
:100FD0002B02911101C0289A84FF18C08091E20071
:100FE0008E7E81608093E2008091E1008F7E80930D
:100FF000E100809129028E7E8061809329029F9179
:101000008F910F900FBE0F901F90189580FFF7CF14
:101010008091E2008E7E80618093E2008091E10009
:101020008E7E8093E100809129028E7E8160E5CFE3
:101030001F920F920FB60F921124CF92DF92EF9270
:10104000FF920F931F932F933F934F935F936F9351
:101050007F938F939F93AF93BF93EF93FF93CF9320
:10106000DF93CDB7DEB76C97DEBFCDBF1092E9003E
:101070008091E80083FF25C068E0CE0145960E947C
:10108000F80182EF8093E8008D8987FF39C0909145
:10109000E80090FFFCCF982F907609F034C19E892C
:1010A0004F89588D2F89F88C911131C0803861F5A6
:1010B00080912A028093F1001092F1008EEF8093CC
:1010C000E8006C960FB6F894DEBF0FBECDBFDF917F
:1010D000CF91FF91EF91BF91AF919F918F917F91B0
:1010E0006F915F914F913F912F911F910F91FF90C1
:1010F000EF90DF90CF900F900FBE0F901F9018953C
:101100009EEF9093E800C7CF1092F100D5CF9130B9
:1011100059F48111D3CF4130510581F680912A02D3
:101120008D7F80932A02CACF933049F48111C6CFB4
:101130004130510519F680912A028260F2CF953034
:1011400041F48091E80080FFFCCF20682093E30009
:10115000B5CF963009F0A9C00B8D1C8D22E01092FE
:10116000E9001092260210922502F2122EC010926F
:101170002402109223020E9420021F8299E0998388
:10118000FA8291E09E8390EA98879AEF998720915E
:10119000250230912602275F3F4F3C832B838D83AE
:1011A0001092E90010922602109225021093240258
:1011B0000093230249E050E0BE016F5F7F4F80E063
:1011C0000E94C1010E94200279CF10932402009353
:1011D00023020E940C02DC0112960D911C91011554
:1011E000110509F451C1D801ED91FC910480F581FC
:1011F000E02DBE016B5E7F4FC8010995009709F095
:101200003EC1F80100851185EACFF3E0FF120EC060
:101210008F89882309F440C0823061F440E860E19E
:1012200082E691E00E94940A811148CF81E2809386
:10123000EB0047CF813029F440E867E08AE591E090
:10124000F1CF833099F70E940C02DC011296ED90E9
:10125000FC908E010F5F1F4F6801E114F10479F0DB
:10126000D701ED91FC910680F781E02DB801C7010F
:101270000995080F111DF701E084F184EECFD80124
:101280001C92F60101900020E9F73197BF016C191B
:101290007D0940E0C601C6CF64E471E0FB014491E2
:1012A00050E080E80E94C10109CF973009F4BECF19
:1012B000983021F481E08093F10000CF993009F05B
:1012C000FDCE837009F0B2CFEDE0F1E081E031E0D6
:1012D00096E32191222371F08093E9003093EB0093
:1012E000DF0111972C912093EC009093ED008F5F1C
:1012F000873079F78EE78093EA001092EA008F89B1
:1013000080932C02DBCE8B8D9C8D1092E900109285
:101310002602109225029093240280932302898D45
:10132000811192C08E899D89913A49F4813209F0E8
:101330007DCF47E050E064E071E080E0B3CF9132D0
:1013400009F074CF833269F48F89988DB0E0A0E002
:101350008093000190930101A0930201B0930301D7
:10136000ADCE803269F48091E80082FFFCCF67E067
:1013700084E091E00E94F8018BEF8093E8009ECE1C
:10138000823209F09BCE8F8980930B01EEEFFFE74D
:10139000859194918B3F9C4D51F1E0E0F8E0809174
:1013A000040190910501A0910601B0910701803BD5
:1013B0009440A105B105F1F480910B0180FD1AC0A4
:1013C000EE3F8AE0F80789F587E797E79183808306
:1013D000809160008093270288E19BE00FB6F8942B
:1013E000A895809360000FBE9093600067CEEEEFEB
:1013F000FAE0D5CF808191818737974709F05ECE9B
:10140000A895809160008861809360008091270298
:1014100080936000EE3F2AE0F20789F08091FE0A97
:101420009091FF0A9183808349CE80819181873793
:10143000980751F29093FF0A8093FE0AC5CF10924D
:10144000FF0A1092FE0A3ACE0E940C02DC011296AC
:101450000D911C910115110509F4E8CED801ED910B
:10146000FC910190F081E02DBE016B5E7F4FC801C1
:101470000995811123CEF80100851185EBCF18164F
:1014800019060CF41BCED2CEF1E0FF12BECE68E4FA
:1014900071E004CF1F920F920FB60F9211242F9379
:1014A0003F938F939F93AF93BF9380910F0290913F
:1014B0001002A0911102B091120230910E0223E0AD
:1014C000230F2D3758F50196A11DB11D20930E0253
:1014D00080930F0290931002A0931102B093120216
:1014E0008091130290911402A0911502B0911602FE
:1014F0000196A11DB11D8093130290931402A09335
:101500001502B0931602BF91AF919F918F913F91B9
:101510002F910F900FBE0F901F90189526E8230F64
:101520000296A11DB11DD2CFEF92FF920F931F9390
:10153000CF93DF93F82E192FE62E042F81E0860F2C
:10154000880F0E94930183E00E949301CF2DD12F39
:10155000EC0EFD2EF11CCE15DF05B9F007FF13C010
:10156000FE0184910E949301182F80E00E94930154
:10157000812321968111EFCFDF91CF911F910F91A0
:10158000FF90EF9008958881EDCF81E0F5CFCF9364
:10159000DF93EB0188819981A2E4B2E011969C93DC
:1015A0008E932A813B810697EC01E881F981EE5BFD
:1015B000FD4F3183208312961D921D921D921C9225
:1015C000159781E290E09483838388E492E0948B82
:1015D000838B1582158ADF91CF910895CF93DF9386
:1015E000C2E4D2E081E290E09C8F8B8F1D8E1E8E34
:1015F0001F8E86E090E0A0E0B0E088A399A3AAA3A4
:10160000BBA31CA21DA21EA21FA281E591E0998F7F
:10161000888F80E288A71AA619A688E492E09CA782
:101620008BA71DA6AC016FE971E0CE010E94C70A2D
:101630008BEA91E09983888385EB91E0998F888F7D
:101640001A8619861C861B861E861D86188A1F868A
:101650001A8A198A1C8A1B8A89E591E09F838E83E6
:1016600080E792E09F8B8E8B88E08D8BDF91CF910E
:101670000895DB018D919C9111979093C102809305
:10168000C00212962D913C910697DC01ED91FC91E0
:10169000E054FD4F3183208381E290E09483838383
:1016A00082EC92E0948B838B1582158A0895CF93F8
:1016B000DF93C0ECD2E081E290E0988F8F8B198E9F
:1016C0001A8E1B8E86E090E0A0E0B0E08C8F9D8F9C
:1016D000AE8FBF8F18A219A21AA21BA281E591E0BA
:1016E0009D8B8C8B80E28CA31EA21DA282EC92E0CB
:1016F00098A78FA319A6AC016BEB71E0CE010E94F5
:10170000390B87EC91E09983888381ED91E09D8B83
:101710008C8B1E821D8218861F821A8619861C8653
:101720001B861E861D86188A1F8689E591E09B838D
:101730008A8380E792E09B8B8A8B80E1898BDF91A3
:10174000CF9108950F931F93CF93DF93C0E7D2E01B
:101750001B821A8288EE93E0A0E0B0E08C839D8328
:10176000AE83BF8389ED91E0998388838FEF9FEFEC
:101770009D878C87BE0180EC92E00E94570BBE01D2
:1017800082E492E00E94EE0A0EE312E0F801138276
:101790001282D183C0836BE071E086EE90E00E94FC
:1017A000150DF80193838283DF91CF911F910F91E3
:1017B0000895789484B5826084BD84B5816084BDC9
:1017C00085B5826085BD85B5816085BD80916E00DF
:1017D000816080936E001092810080918100826010
:1017E000809381008091810081608093810080914D
:1017F000800081608093800080919100826080935E
:10180000910080919100816080939100809190007F
:101810008160809390008091C10084608093C100BA
:101820008091C10082608093C1008091C10081607D
:101830008093C1008091C30081608093C300809138
:10184000C00082608093C0008091C200816080935C
:10185000C20080917A00846080937A0080917A003F
:10186000826080937A0080917A00816080937A0010
:1018700080917A00806880937A0010922C021092F6
:101880002A02109229028091D70081608093D700AC
:1018900080EA8093D80089B5806189BD89B582606E
:1018A00089BD09B400FEFDCF61E070E080E090E00A
:1018B0000E94F8028091D8008F7C80618093D800CC
:1018C0008091E000807F8093E0008091E1008E7E37
:1018D0008093E1008DE08093E200559A209A0E9467
:1018E0001B070E941B07FC0120813181206131838D
:1018F00020830E94920664EF71E080E090E00E94F5
:10190000F8020E941B07FC01208131812062318393
:1019100020830E94920664EF71E080E090E00E94D4
:10192000F8020E941B07FC01208131812F7E318348
:1019300020830E94920664EF71E080E090E00E94B4
:10194000F8020E941B07FC01208131812F7D318329
:1019500020830E94920664EF71E080E090E00E9494
:10196000F80268EE73E080E090E00E94F8028FEBEE
:10197000F82EC0E0D0E00E941B07FC01F382148225
:101980000E9492060AE010E00E941B07FC012081E1
:1019900031812460318320830E9492066AEF70E0D7
:1019A00080E090E00E94F8020E941B07FC01208169
:1019B00031812B7F318320830E9492066AEF70E091
:1019C00080E090E00E94F80201501109E9F60E94BF
:1019D0001B07FC01208131812260318320830E941A
:1019E00092066AEF70E080E090E00E94F8020E94A8
:1019F0001B07FC01208131812D7F318320830E94D0
:101A000092066AEF70E080E090E00E94F802209772
:101A100009F4B1CF0E940000AECF82E492E00E94B0
:101A2000320680EC92E00C947A060F931F93CF93CA
:101A3000DF93009759F46115710541F4F0E0E0E09F
:101A4000CF01DF91CF911F910F9108958B01EC0190
:101A50006EE070E081E090E00E94600DFC01892B57
:101A600069F380E883830115110571F013870287FC
:101A700081E883838091EA029091EB02892B21F423
:101A8000F093EB02E093EA022097D1F2D187C0876E
:101A90008381826083838091EC029091ED02892B97
:101AA00079F6F093ED02E093EC028091EE029091D2
:101AB000EF02892B29F6F093EF02E093EE02C0CFFC
:101AC0000F931F93CF93DF93869F8001879F100D05
:101AD000969F100D1124C8010E947C0DEC01009707
:101AE00029F0A80170E060E00E94A10ECE01DF9114
:101AF000CF911F910F9108950F931F93CF93DF9371
:101B00008230910510F482E090E0E091F202F091D1
:101B1000F30230E020E0B0E0A0E0309799F4211526
:101B2000310509F44AC0281B390B24303105D8F59A
:101B30008A819B816115710589F1FB019383828301
:101B4000FE0111C04081518102811381481759075C
:101B5000E0F04817590799F4109761F012960C932A
:101B6000129713961C933296CF01DF91CF911F915C
:101B70000F9108950093F2021093F302F4CF211510
:101B8000310551F04217530738F0A901DB019A01E2
:101B9000BD01DF01F801C1CFEF01F9CF9093F3024E
:101BA0008093F202CDCFFE01E20FF31F8193919358
:101BB0002250310939832883D7CF2091F002309108
:101BC000F102232B41F4209115013091160130933D
:101BD000F1022093F002209113013091140121159C
:101BE000310541F42DB73EB74091170150911801CE
:101BF000241B350BE091F002F091F102E217F3079C
:101C0000A0F42E1B3F0B2817390778F0AC014E5F6C
:101C10005F4F2417350748F04E0F5F1F5093F102B6
:101C20004093F002819391939FCFF0E0E0E09CCF4E
:101C3000CF93DF930097E9F0FC0132971382128271
:101C4000A091F202B091F302ED0130E020E0109794
:101C5000A1F420813181820F931F2091F0023091F5
:101C6000F1022817390709F061C0F093F102E093FF
:101C7000F002DF91CF910895EA01CE17DF07E8F572
:101C80004A815B819E0141155105B1F7E901FB8352
:101C9000EA8349915991C40FD51FEC17FD0761F4F0
:101CA000808191810296840F951FE9019983888331
:101CB000828193819B838A83F0E0E0E012968D918C
:101CC0009C9113970097B9F52D913C911197CD01F7
:101CD0000296820F931F2091F0023091F102281793
:101CE000390739F6309751F51092F3021092F2024B
:101CF000B093F102A093F002BCCFD383C2834081A2
:101D00005181840F951FC817D90761F44E5F5F4F4B
:101D100088819981480F591F518340838A819B8113
:101D2000938382832115310509F0B0CFF093F3023C
:101D3000E093F2029ECFFD01DC01C0CF138212823C
:101D4000D7CFDC0101C06D9341505040E0F70895BA
:101D5000EE0FFF1F0590F491E02D099410E0CBEBFE
:101D6000D0E004C0FE010E94A80E2196CC3BD10712
:061D7000C9F7F894FFCF53
:101D7600FFFFFFFF00E100000000000000C18081BE
:101D86000000000000F402800018000000000000BF
:101D9600000000E8FFE8FF0000000000001400005B
:101DA60000000000000000ECFFECFF000000000057
:101DB6000000000000DB0354041904FE03000000C9
:101DC60000910619070000000049060B070006FDF2
:101DD60005FA05F7051905EC05B10598057F059F78
:101DE6000440051C050200000000005C060D07FE0D
:101DF600FFFEFF00004A060F070600000000001461
:101E060006D506FAFFFAFF00000206D706AB011F49
:101E1600012901B5011800000000003206F506E8A8
:101E2600FFE8FF00003F06FF06C70133013D01D171
:101E3600011400000000007A06E106ECFFECFF004A
:101E4600008706EB06000000005102C50372026718
:081E560002B9027702950200B7
:00000001FF
